:020000040800F2
:100000000050002021020008290200082D020008EB
:10001000A1020008A5020008ED020008000000008F
:100020000000000000000000000000003503000890
:1000300039030008000000003D0300087D0A0008A5
:100040005103000851030008510300085103000840
:100050005103000851030008510300085103000830
:100060005103000851030008510300085103000820
:100070005103000851030008510300085103000810
:100080005103000851030008510300085103000800
:1000900051030008510300085103000851030008F0
:1000A00051030008510300085103000851030008E0
:1000B00051030008510300085103000851030008D0
:1000C00051030008510300085103000851030008C0
:1000D00051030008510300085103000851030008B0
:1000E00051030008510300085103000800000000FC
:1000F0000000000000000000000000000000000000
:1001000000000000000000005FF808F100B583B0B7
:1001100000F01CFB304B314A1360314A1360314B05
:10012000314A03E011681960043304322F498B42CD
:10013000F8D32A4B1A682E4B9A4204D1284B1A68DE
:100140002C4B9A4200D0FEE7234B2B4A13602B4ADC
:1001500013602B4B02E000221A600433294A9342B9
:10016000F9D3254B1B6813B9244B1B6803B1FEE779
:1001700000F0F8FA694601A800F050FA224C234B2F
:100180001C1BA410002504E01F4B53F82530984792
:100190000135AC42F8DC1E4C1E4B1C1BA410002584
:1001A00004E01B4B53F8253098470135AC42F8DC8E
:1001B0000099019800F07EFC0546174C174B1C1B5C
:1001C000A41004E0013C144B53F824309847002C51
:1001D000F8DC284600F0F4F9BABADECA00000020C4
:1001E00084000020000000201C220008880000205D
:1001F000785634123254769888000020C4010020CA
:1002000088000020C80100207C0300087C0300084F
:100210007C0300088C0300088C0300088C03000892
:1002200008B5FFF773FF00BF00BEFEE71EF0040F26
:100230000CBFEFF30880EFF309807146414A104785
:100240002DE9F04182B004468846134B5E6B9F6BEC
:100250009D6A1B6B13F0020F0DD00F4BDB6A002B56
:1002600009DA4BF6AB6100F0F9FA20B14FF0004229
:10027000094BDA620CE0094800F00AFACDF8008078
:100280003B4632462946204600F070FA00BEFEE7A3
:1002900002B0BDE8F08100BF00ED00E0E8200008FA
:1002A00000BEFEE71EF0040F0CBFEFF30880EFF373
:1002B00009807146244A10472DE9F04182B0044676
:1002C0008846084B5E6B9F6B9D6A074800F0E0F91B
:1002D000CDF800803B4632462946204600F046FADB
:1002E00000BEFEE700ED00E0F82000081EF0040F5D
:1002F0000CBFEFF30880EFF309807146134A1047F3
:100300002DE9F04182B004468846084B5E6B9F6B36
:100310009D6A074800F0BCF9CDF800803B463246A4
:100320002946204600F022FA00BEFEE700ED00E07C
:100330000421000800BEFEE700BEFEE700BEFEE7A7
:100340007047000041020008B902000801030008DC
:0403500000BEFEE706
:100354001C22000800000020880000201C22000845
:10036400000000000000000088000020C8010020F8
:100374000000000000000000710B0008350C0008AC
:08038400B90C00087D0D000812
:10038C00F8B505460C46464B98421BD003F58063E6
:10039C00984217D003F58063984213D003F580631D
:1003AC0098420FD003F5806398420BD003F580631D
:1003BC00984207D003F58063984203D0B2213948A4
:1003CC0000F056F9E3788BB1042B0FD0282B0DD00D
:1003DC00482B0BD0142B09D0102B07D01C2B05D07D
:1003EC00182B03D0B3212F4800F042F923881BB9F6
:1003FC00B4212C4800F03CF9E37803F00F063046AA
:10040C0013F0100F0AD0A378013BDBB2022B03D9F7
:10041C00BB21244800F02CF9A07830432378E3B1B9
:10042C002E68002316E001229A40218832EA01014D
:10043C000FD199000F278F4026EA070600FA01F129
:10044C000E43E178282901D16A6102E0482900D1E4
:10045C002A610133072BE6D92E602388FF2B1ED986
:10046C006E68002318E003F1080101228A402188FC
:10047C0032EA01010FD199000F278F4026EA0706B7
:10048C0000FA01F10E43E178282900D16A61E17884
:10049C00482900D12A610133072BE4D96E60F8BDDD
:1004AC0000080140BC1E000838B504460D46144B2C
:1004BC0098421CD003F58063984218D003F58063F2
:1004CC00984214D003F58063984210D003F58063F2
:1004DC0098420CD003F58063984208D003F58063F2
:1004EC00984204D040F26911064800F0C1F825B9D1
:1004FC004FF4B571034800F0BBF8256138BD00BF5F
:10050C0000080140BC1E000838B504460D46144BCB
:10051C0098421CD003F58063984218D003F5806391
:10052C00984214D003F58063984210D003F5806391
:10053C0098420CD003F58063984208D003F5806391
:10054C00984204D040F27911064800F091F825B990
:10055C004FF4BD71034800F08BF8656138BD00BFE6
:10056C0000080140BC1E000838B504460D460E4B71
:10057C00034003B920B940F24A410C4800F078F826
:10058C00012D04D940F24B41084800F071F825B117
:10059C00074A93691C43946138BD054A936923EA61
:1005AC000404946138BD00BF0200C0FFF01E0008B7
:1005BC0000100240FEE700BF08B5034800F07AF8CF
:1005CC000120FFF7F7FF00BF201F000808B50D4BF7
:1005DC001B6813B90C4A0B4B1A600A4B1A68C31CE4
:1005EC0023F00303134409498B4206D900F002FCA3
:1005FC000C2303604FF0FF3008BD02490B6010461E
:10060C0008BD00BF8C000020C8010020004C002059
:10061C0001230360014B0B60704700BF04000020F6
:10062C0008B500F0E7FB582303604FF0FF3008BD1E
:10063C0008B500F0DFFB582303604FF0FF3008BD16
:10064C0008B500F0D7FB58230360002008BD00BF9D
:10065C0008B500F0CFFB582303604FF0FF3008BD06
:10066C0008B500F0C7FB582303604FF0FF3008BDFE
:10067C0008B50A460146024800F004F8FFF79CFF53
:10068C00741F00080FB400B583B004AB53F8042BEF
:10069C0001938021064800F0B7FF002803DD0146D6
:1006AC00034800F049F803B05DF804EB04B0704760
:1006BC009400002010B5044600F073FF014620465C
:1006CC0000F03AF80121024800F036F810BD00BFE6
:1006DC00642000082DE9F04385B004460F464356CC
:1006EC0013BB042528462146ABBE04461FE0354605
:1006FC00102E28BF1025002306E014F9011B04AAB4
:10070C001A4402F8101C0133AB42F6D304AA13446A
:10071C00002203F8102CE9464FF0040840464946E5
:10072C00ABBE8046761B00E00E46002EDFD138466D
:10073C0005B0BDE8F08300BF08B5FFF7CBFF08BDDF
:10074C0008B500F0FBF8024B024A9A6008BD00BFE6
:10075C0000ED00E00000000808B500F017F908BD36
:10076C00F8B504460D4617461E462648FFF78AFF85
:10077C0021682548FFF786FF61682448FFF782FF50
:10078C00A1682348FFF77EFFE1682248FFF77AFF54
:10079C0021692148FFF776FF61692048FFF772FF56
:1007AC00A1691F48FFF76EFFE1691E48FFF76AFF5A
:1007BC001D48FFF767FF29461C48FFF763FF1C4CD9
:1007CC00E16A1C48FFF75EFF216B1B48FFF75AFFDD
:1007DC00E16B1A48FFF756FF15F0800F03D039462E
:1007EC001748FFF74FFF15F4004F03D0314615485B
:1007FC00FFF748FF1448FFF745FF06991348FFF72A
:10080C0041FFF8BDCC1F0008DC1F0008EC1F0008DE
:10081C00FC1F00080C2000081C2000082C200008DD
:10082C003C2000084C2000085C20000868200008D0
:10083C0000ED00E0782000088820000898200008CF
:10084C00A8200008B8200008C8200008D020000804
:10085C0083691A888A4207D10268033A012A05D8AB
:10086C0002338361012070470020704700207047DD
:10087C0082B00023019300932C4A136843F4803315
:10088C0013602A4B1B6803F400330093019B013364
:10089C000193009B1BB9019BB3F5A06FF1D1234BC6
:1008AC001B6813F4003F02D00123009301E00023E6
:1008BC000093009B012B36D11D4B1A6842F010029D
:1008CC001A601A6822F003021A601A6842F00202D7
:1008DC001A60A3F580535A685A605A685A605A686D
:1008EC0042F480625A605A6822F47C125A605A6848
:1008FC0042F4E8125A601A6842F080721A600B4B8C
:10090C001B6813F0007FFAD0084B5A6822F00302E0
:10091C005A605A6842F002025A60044B5B6803F05A
:10092C000C03082BF9D102B0704700BF0010024035
:10093C000020024008B5FFF79BFF08BD08B5104B1F
:10094C001A6842F001021A6059680E4A0A405A604D
:10095C001A6822F0847222F480321A601A6822F427
:10096C0080221A605A6822F4FE025A604FF41F0269
:10097C009A60FFF7DFFF4FF00062034B9A6008BDEF
:10098C00001002400000FFF800ED00E01F4B5B6818
:10099C0003F00C03042B06D0082B08D03BBB1C4ADD
:1009AC001C4B1A6026E01A4A1A4B1A6022E0174AAE
:1009BC0053685268C3F38343023312F4803F05D16A
:1009CC00154A02FB03F3134A136013E00F4A5268F3
:1009DC0012F4003F05D0104A02FB03F30D4A1360DA
:1009EC0008E00B4A02FB03F30A4A136002E0084AD0
:1009FC00084B1A60054B5B68C3F30313074AD35CBF
:100A0C00DAB204490B68D3400B6070470010024007
:100A1C0000127A001C00002000093D000C00002090
:100A2C0030B583B001211020FFF79EFD4FF48055A7
:100A3C00ADF8045003238DF8063010238DF80730E1
:100A4C00054C01A92046FFF79BFC29462046FFF7E1
:100A5C002BFD03B030BD00BF00100140034B1860EC
:100A6C00024B1B68002BFBD1704700BF1401002008
:100A7C00034B1B681BB1024A1368013B13607047A0
:100A8C001401002008B50138012805D80B46114681
:100A9C001846FFF751FE08BD00F0ACF9582303606F
:100AAC004FF0FF3008BD00BF10B582B02248FFF7F1
:100ABC0001FE224800F01AFD214B1B68DB6818224E
:100ACC000121204800F064FB1F4C21681F48FFF7F0
:100ADC00D9FD23681E4AA2FB03239B09013BB3F1FA
:100AEC00807F09D21B4A5360F0211B4B83F82310E3
:100AFC00002393600723136001A8FFF791FF0024E4
:100B0C004FF480511548FFF7FFFC14B94FF47A707D
:100B1C0001E040F2EE20FFF7A1FF4FF480510F48A7
:100B2C00FFF7C2FCFA20FFF799FF013421460C486D
:100B3C00FFF7A8FDE4E700BF1421000828210008F6
:100B4C0080000020442100081C00002060210008C7
:100B5C00D34D621010E000E000ED00E00010014009
:100B6C0078210008244B1A68D0075CBF01221A6058
:100B7C00224B1A68D1075CBF01221A60204B1A68FD
:100B8C00D2075CBF01221A601E4B1A68D0075CBFEB
:100B9C0001221A601C4B1A68D1075CBF01221A6033
:100BAC001A4B1A68D2075CBF01221A60184B1A68DC
:100BBC00D0075CBF01221A60164B1A68D1075CBFC4
:100BCC0001221A60144B1A68D2075CBF01221A600A
:100BDC00124B1A68D0075CBF01221A60104B1A68BE
:100BEC00D1075CBF01221A600E4B1A68D2075CBF9A
:100BFC0001221A60704700BF440100204001002010
:100C0C003C0100203801002034010020300100207C
:100C1C002C010020280100202401002020010020AC
:100C2C001C01002018010020184B1A68D1075CBF6A
:100C3C0001221A60164B1A68D2075CBF01221A6097
:100C4C00144B1A68D0075CBF01221A60124B1A6849
:100C5C00D1075CBF01221A60104B1A68D2075CBF27
:100C6C0001221A600E4B1A68D0075CBF01221A6071
:100C7C000C4B1A68D1075CBF01221A600A4B1A6828
:100C8C00D2075CBF01221A60704700BF64010020CC
:100C9C00600100205C01002058010020540100205C
:100CAC00500100204C01002048010020244B1A6800
:100CBC00D0075CBF01221A60224B1A68D1075CBFB7
:100CCC0001221A60204B1A68D2075CBF01221A60FD
:100CDC001E4B1A68D0075CBF01221A601C4B1A68A5
:100CEC00D1075CBF01221A601A4B1A68D2075CBF8D
:100CFC0001221A60184B1A68D0075CBF01221A60D7
:100D0C00164B1A68D1075CBF01221A60144B1A6883
:100D1C00D2075CBF01221A60124B1A68D0075CBF65
:100D2C0001221A60104B1A68D1075CBF01221A60AD
:100D3C000E4B1A68D2075CBF01221A60704700BFC5
:100D4C0094010020900100208C01002088010020DB
:100D5C0084010020800100207C010020780100200B
:100D6C0074010020700100206C010020680100203B
:100D7C00184B1A68D1075CBF01221A60164B1A680F
:100D8C00D2075CBF01221A60144B1A68D0075CBFF3
:100D9C0001221A60124B1A68D1075CBF01221A603B
:100DAC00104B1A68D2075CBF01221A600E4B1A68EE
:100DBC00D0075CBF01221A600C4B1A68D1075CBFCC
:100DCC0001221A600A4B1A68D2075CBF01221A6012
:100DDC00704700BFB4010020B0010020AC0100201E
:100DEC00A8010020A4010020A00100209C010020EB
:100DFC0098010020014B1868704700BF800000204C
:100E0C008A892DE9F041054610070C4659D44B68E8
:100E1C00002B02DC0B6C002B17DDE66AAEB102F482
:100E2C008052002392B22F682B600AB1606D15E0DE
:100E3C00216A01232846B047411C0FD12B686BB1A6
:100E4C001D2B01D0162B03D12F600020BDE8F081A3
:100E5C00A38943F04003A381BDE8F081A3895A071D
:100E6C0005D56368C01A636B0BB1236CC01A0023E1
:100E7C000246E66A216A2846B047431CA38906D17C
:100E8C0029681D2939D8204ACA40D60735D50022F1
:100E9C0062602269D904226004D5421C01D12B68FE
:100EAC0003B96065616B2F600029CED004F1440357
:100EBC00994202D0284600F015FA00206063BDE884
:100ECC00F0810F69002FC0D093070E680CBF4B69DF
:100EDC000023C7EB06080F608B6002E00744C0EBF1
:100EEC000808B8F1000FB0DD43463A46216A28469F
:100EFC00A66AB0470028F1DCA38943F04003A38124
:100F0C004FF0FF30BDE8F0810100402038B50B698F
:100F1C0005460C46DBB118B183690BB900F060F8DB
:100F2C000C4B9C4201D16C6808E00B4B9C4201D1EC
:100F3C00AC6803E0094B9C4208BFEC68B4F90C3078
:100F4C002BB121462846BDE83840FFF759BF002099
:100F5C0038BD00BF84210008A4210008C42100086A
:100F6C00014900F0A9B800BF190F000810B50446DC
:100F7C00002303604360836081814366C281036107
:100F8C0043618361194608225C3000F0A3F9054BDC
:100F9C0024626362044BA362044BE362044B23633D
:100FAC0010BD00BF291500084B150008831500085B
:100FBC00A715000870B568234D1E5D430E4605F15C
:100FCC00740100F0DBF9044640B1002180E84200D6
:100FDC000C30A06005F1680200F07CF9204670BD71
:100FEC00836910B5044633BB8364C3640365124B39
:100FFC00124A1B688262984204BF0123836100F08D
:10100C001FF86060204600F01BF8A060204600F03E
:10101C0017F80022E06004216068FFF7A7FF0122A7
:10102C000921A068FFF7A2FF02221221E068FFF756
:10103C009DFF0123A36110BDE42100086D0F000882
:10104C00F8B51C4B07461E68B36913B93046FFF759
:10105C00C7FF4836B4687368013B04D4B4F90C502C
:10106C007DB16834F8E733680BB13668F2E70421D8
:10107C003846FFF79FFF30600028F6D10C233B6009
:10108C00F8BD4FF6FF73E3810123A38165662560EC
:10109C00A560656025616561A5610822294604F19A
:1010AC005C0000F017F96563A563A564E564204650
:1010BC00F8BD00BFE42100082DE9F84380468946BD
:1010CC0000F14804002694B1A5686768013F0CD470
:1010DC00AB89012B07D9B5F90E30013303D0294662
:1010EC004046C84706436835F0E72468EBE73046CE
:1010FC00BDE8F8832DE9F843089C8946174602FBA6
:10110C0003F8064618B183690BB9FFF769FF1D4B4D
:10111C009C4201D1746808E01B4B9C4201D1B4681D
:10112C0003E01A4B9C4208BFF468A3891B0703D544
:10113C0023690BB1002513E02146304600F0D8FAA4
:10114C000028F7D0002519E0A36819F80510013B19
:10115C00002BA36007DB23685A1C22601970013531
:10116C004545F1D10AE0A269934201DB0A29F2D18B
:10117C002246304600F056FA0130F0D1B5FBF7F0BC
:10118C00BDE8F88384210008A4210008C4210008CC
:10119C0007B5009313460A46014603480068FFF75B
:1011AC00A9FF03B05DF804FB8000002070B50E466B
:1011BC00B1F90E1090B0002914461D4606DA002332
:1011CC002B60B3891A060ED540230EE001AA00F05D
:1011DC000DFB0028F3DB029A02F47042A2F50053D7
:1011EC005A425A412A604FF480630020236010B0A9
:1011FC0070BD00008B8973B59E0705460C4610D454
:10120C0001AB6A46FFF7D2FF00990646284600F06C
:10121C00B5F868B9B4F90C309A0522D443F002033E
:10122C00A38104F14703236023610123636118E068
:10123C000D4BAB62A389206043F08003A381009B1C
:10124C0020616361019B4BB1B4F90E10284600F08C
:10125C00DFFA18B1A38943F00103A381A0893043BD
:10126C00A08102B070BD00BF6D0F000810B5C9B2EF
:10127C0002449042034605D01C7801308C42F8D1D0
:10128C00184610BD002010BD10B5431E0A449142F3
:10129C0004D011F8014B03F8014FF8E710BD884258
:1012AC0010B501EB020301D8421E0BE09842FBD2B1
:1012BC008118D21AD34204D013F8014D01F8014D14
:1012CC00F8E710BD994204D011F8014B02F8014F18
:1012DC00F8E710BD03460244934202D003F8011B09
:1012EC00FAE7704738B50546002944D051F8043C5C
:1012FC000C1F002BB8BFE41800F0ACFA1E4A1368A0
:10130C00114613B96360146030E0A3420DD9226812
:10131C00A018834201BF18685B68121822606360D2
:10132C000C6023E0A24203D813465A68002AF9D174
:10133C0018681918A1420BD121680144581882422F
:10134C00196013D110685268014419605A600DE09D
:10135C0002D90C232B6009E021686018824201BF7E
:10136C00106852680918216062605C602846BDE80C
:10137C00384000F070BA38BDBC01002070B5CD1CEF
:10138C0025F0030508350C2D38BF0C25002D06461D
:10139C0001DBA94202D90C23336046E000F05AFA73
:1013AC00234B1C681A462146A1B10B685B1B0ED45B
:1013BC000B2B03D90B60CC18CD501EE08C420BBF0D
:1013CC0063684B681360636018BF0C4615E00C46ED
:1013DC004968E9E7174C23681BB9304600F08EF8D2
:1013EC0020602946304600F089F8431C18D0C41CF4
:1013FC0024F00304A0420DD12560304600F02BFAF6
:10140C0004F10B00231D20F00700C31A0ED05A4222
:10141C00E25070BD211A304600F070F80130EBD16B
:10142C000C233360304600F016FA002070BD00BF6C
:10143C00BC010020B801002070B50E46054618B15D
:10144C0083690BB9FFF7CCFDAB69AC6813B92846BF
:10145C00FFF7C6FD224B9C4201D16C6808E0214B82
:10146C009C4201D1AC6803E01F4B9C4208BFEC6866
:10147C00A3891B0701D523693BB92146284600F0F7
:10148C0037F910B14FF0FF3070BD013EA36816F86C
:10149C00011F013BA36091B1002B04DAA2699342B6
:1014AC0006DB0A2904D023685A1C22601970EDE768
:1014BC002246284600F0B6F80130E7D1E2E7002BCF
:1014CC0008DA22460A21284600F0ACF80130D9D0BF
:1014DC000A2070BD23680A205A1C2260187070BD47
:1014EC0084210008A4210008C4210008024B0146F5
:1014FC001868FFF7A1BF00BF8000002038B5064C6C
:10150C000023054608462360FFF760F8431C02D110
:10151C00236803B12B6038BDC001002010B50C4608
:10152C00B1F90E1000F082FC0028ABBF636DA389EB
:10153C001B1823F48053ACBF6365A38110BD2DE948
:10154C00F0411F468B890546DB050C46164605D532
:10155C0002230022B1F90E1000F06AF9A389324679
:10156C0023F48053A381B4F90E103B462846BDE802
:10157C00F04100F0ABB810B50C46B1F90E1000F00C
:10158C0057F9431CA38915BF606523F4805343F4BA
:10159C008053A38118BFA38110BDB1F90E1000F0C8
:1015AC0015B9034613F8012B002AFBD1181A013880
:1015BC00704730B5141E05469BB0184604DA8B23D1
:1015CC002B604FF0FF301DE04FF40273ADF80C3080
:1015DC000CBF234604F1FF33029305934FF6FF73C0
:1015EC0000910491ADF80E3002461E9B69462846C8
:1015FC0000F08CF9431CBCBF8B232B6014B1009BF7
:10160C0000221A701BB030BD07B5009313460A4672
:10161C00014603480068FFF7CCFF03B05DF804FBFC
:10162C0080000020F8B50F461446054618B18369B2
:10163C000BB9FFF7D5FC224B9C4201D16C6808E03A
:10164C00204B9C4201D1AC6803E01F4B9C4208BF6D
:10165C00EC68A369A360A3891A0709D523693BB178
:10166C0023682069FEB2181A636998420FDB08E000
:10167C002146284600F03CF80028F1D04FF0FF3608
:10168C001BE021462846FFF741FC0028F6D1A36851
:10169C000130013BA36023685A1C22601F706369F0
:1016AC00984204D0A389DB0707D50A2E05D1214621
:1016BC002846FFF72BFC0028E0D13046F8BD00BFD0
:1016CC0084210008A4210008C421000838B5074C67
:1016DC00054608461146002222601A46FFF7D2F949
:1016EC00431C02D1236803B12B6038BDC00100201C
:1016FC00324B70B51D6806460C4625B1AB6913B963
:10170C002846FFF76DFC2E4B9C4201D16C6808E01B
:10171C002C4B9C4201D1AC6803E02B4B9C4208BF84
:10172C00EC68B4F90C309AB215071DD4D00602D46B
:10173C00092232603AE0510712D5616B41B104F1D4
:10174C004403994202D03046FFF7CCFD002363637B
:10175C00A38923F02403A3810023636023692360FE
:10176C00A38943F00803A38123694BB9A38903F42C
:10177C002073B3F5007F03D021463046FFF73AFDC6
:10178C00A28912F0010305D00023A36063695B42B8
:10179C00A36103E0920758BF6369A36023695BB937
:1017AC00B4F90C3003F0800080B230B143F0400348
:1017BC00A3814FF0FF3070BD002070BD8000002071
:1017CC0084210008A4210008C421000838B5064C67
:1017DC000023054608462360FEF722FF431C02D176
:1017EC00236803B12B6038BDC001002038B5074C0D
:1017FC0000230546084611462360FEF719FF431CDB
:10180C0002D1236803B12B6038BD00BFC00100209A
:10181C0038B5064C0023054608462360FEF710FF3A
:10182C00431C02D1236803B12B6038BDC0010020DA
:10183C0038B5074C054608461146002222601A4668
:10184C00FEF706FF431C02D1236803B12B6038BDA1
:10185C00C0010020704770472DE9F0478E68824622
:10186C009E420C46914698463ED88A8912F4906F57
:10187C003AD02568096902236F1A656905EB45059D
:10188C0095FBF3F57B1C43449D4238BF1D46530525
:10189C000FD52946FFF772FD064698B13A462169E5
:1018AC00FFF7F2FCA38923F4906343F08003A38138
:1018BC0013E02A4600F0CCFA064670B9216950466E
:1018CC00FFF710FD0C23CAF80030A3894FF0FF304E
:1018DC0043F04003A381BDE8F08726613E442660B7
:1018EC0046466561ED1BA560464528BF4646494600
:1018FC0032462068FFF7D3FCA36800209B1BA36033
:10190C0023681E442660BDE8F08700002DE9F04FE7
:10191C009DB003938B8980461C060D4616460DD54B
:10192C000B695BB94021FFF729FD2860286118B9C4
:10193C000C23C8F80030CDE040236B6100230993E1
:10194C0020238DF82930DFF89CB130238DF82A3014
:10195C0037463C4614F8013B1BB9B7EB060910D0CF
:10196C0003E0252BF9D02746F3E74B4632462946B0
:10197C004046FFF771FF013000F0A780099B4B44F4
:10198C0009933B78002B00F0A08000234FF0FF322E
:10199C0004930793059206938DF853301A930126FE
:1019AC00052221784E48FFF761FC671C049B38B177
:1019BC004B4A3C46801A06FA00F018430490EFE7B5
:1019CC00D90644BF20228DF853201A0744BF2B227E
:1019DC008DF8532022782A2A03D0079A00210A2056
:1019EC000BE0039A111D12680391002A10DA52427F
:1019FC0043F00200079204900BE027463B78013439
:101A0C00303B092B03D800FB02320121F5E701B171
:101A1C0007923B782E2B1ED17B782A2B0AD1039B65
:101A2C0002371A1D1B680392002BB8BF4FF0FF330F
:101A3C00059310E0002319460593781C0A240746E9
:101A4C003A780130303A092A03D804FB01210123EA
:101A5C00F5E703B10591032239782248FFF706FC1C
:101A6C0040B14023CBEB000003FA00F0049B01379C
:101A7C0018430490397806221B487E1C8DF82810D8
:101A8C00FFF7F4FB88B1194B33B9039B073323F0F1
:101A9C0007030833039314E003AB00932A46144B5B
:101AAC0004A94046AFF3008007E003AB00932A463D
:101ABC000F4B04A9404600F093F8B0F1FF3F82466B
:101ACC0003D0099B5344099342E7AB895B0601D4CD
:101ADC00099801E04FF0FF301DB0BDE8F08F00BF5A
:101AEC00E8210008EE210008F221000800000000A7
:101AFC00651800082DE9F04791461F460A698B6866
:101B0C0006469342B8BF1346C9F8003091F84320FB
:101B1C000C46DDF8208012B10133C9F8003023687F
:101B2C00990642BFD9F800300233C9F80030256855
:101B3C0015F0060510D104F1190A07E001235246ED
:101B4C0039463046C04701301AD00135E368D9F820
:101B5C0000209B1A9D42F1DB94F84330226800333D
:101B6C0018BF012392060FD5E118302081F84300ED
:101B7C005A1C94F845102244023382F8431003E0B7
:101B8C004FF0FF30BDE8F08704F143023946304690
:101B9C00C0470130F4D02268D9F80050E36802F055
:101BAC000602042A08BF5D1B2269A3680CBF25EA44
:101BBC00E57500259342C4BF9B1AED184FF0000940
:101BCC001A344D4509D00123224639463046C047C8
:101BDC000130D5D009F10109F3E70020BDE8F08709
:101BEC002DE9F04317460A7E85B06E2A98460646C4
:101BFC000C460C9B01F1430E00F0AE8011D8632A09
:101C0C0022D009D8002A00F0BB80582A40F0CA80A4
:101C1C0081F84520834955E0642A1ED0692A1CD0DE
:101C2C00C0E0732A00F0B08009D86F2A2ED0702A39
:101C3C0040F0B8800A6842F020020A603EE0752A43
:101C4C0024D0782A3AD0ADE01A6801F14205111D72
:101C5C001960136884F84230A8E021681A6811F002
:101C6C00800F02D0111D196008E011F0400F02F135
:101C7C000401196002D0B2F9003000E01368002BA7
:101C8C003CDA2D225B4284F8432037E021681A6845
:101C9C0011F0800F02D0111D196007E011F0400FF8
:101CAC0002F10401196001D0138800E01368227E50
:101CBC005C496F2A14BF0A2208221BE078225A4979
:101CCC0084F845202268186812F0800F00F1040592
:101CDC001D6003D1550601D5038800E00368D007C9
:101CEC0044BF42F0200222601BB9226822F020027D
:101CFC0022601022002084F8430001E049490A22A6
:101D0C006568002DA56008DB206820F004002060C9
:101D1C002BB9002D7DD175460CE0002B79D0754682
:101D2C00B3FBF2F002FB1033CB5C05F8013D03462C
:101D3C000028F5D1082A0BD12368DA0708D52369C6
:101D4C0062689A42DEBF302305F8013C05F1FF358D
:101D5C00C5EB0E0323612EE008681A6810F0800FA3
:101D6C00496903D0101D1860136808E010F0400F8B
:101D7C0002F104001860136801D0198000E01960AA
:101D8C0000232361754616E01A68111D1960156849
:101D9C00002162682846FFF769FA08B1401B6060B1
:101DAC00636804E004F1420584F8422001232361B6
:101DBC00002384F84330CDF800803B4603AA21462B
:101DCC003046FFF797FE013002D14FF0FF3026E08E
:101DDC0023692A4639463046C0470130F5D023687E
:101DEC009B0710D5002504F1190907E001234A4689
:101DFC0039463046C0470130E7D00135E368039AD5
:101E0C009B1A9D42F2DBE068039B9842B8BF1846D0
:101E1C0005E00B7804F1420584F842308AE705B0FE
:101E2C00BDE8F083F92100080A22000838B5074CF8
:101E3C00054608461146002222601A46FEF710FCA1
:101E4C00431C02D1236803B12B6038BDC0010020B4
:101E5C00F8B5074615460E4621B91146BDE8F840BF
:101E6C00FFF78CBA1AB9FFF73DFA2846F8BD00F017
:101E7C0015F885420ED929463846FFF77FFA0446F5
:101E8C0050B131462A46FFF7FFF931463846FFF785
:101E9C0029FA01E03046F8BD2046F8BD51F8040C93
:101EAC000028BEBF091851F8043CC018043870470C
:101EBC002E2E2F73797374656D2F7372632F737459
:101ECC006D333266312D7374647065726970682F6E
:101EDC0073746D3332663130785F6770696F2E635F
:101EEC00000000002E2E2F73797374656D2F7372A2
:101EFC00632F73746D333266312D73746470657235
:101F0C006970682F73746D3332663130785F726329
:101F1C00632E630061626F727428292C20657869C6
:101F2C0074696E672E2E2E002C2066756E63746994
:101F3C006F6E3A2000000000617373657274696FF4
:101F4C006E2022257322206661696C65643A2066D6
:101F5C00696C6520222573222C206C696E65202506
:101F6C0064257325730A00006173736572745F7066
:101F7C006172616D2829206661696C65643A20661E
:101F8C00696C6520222573222C206C696E652025D6
:101F9C00640A00006D61696E28617267633D256497
:101FAC002C20617267763D5B000000002C20000045
:101FBC0022257322000000005D293B0A000000006E
:101FCC00537461636B206672616D653A0A000000A0
:101FDC00205230203D2020253038580A00000000C7
:101FEC00205231203D2020253038580A00000000B6
:101FFC00205232203D2020253038580A00000000A5
:10200C00205233203D2020253038580A0000000093
:10201C0020523132203D20253038580A0000000073
:10202C00204C52203D2020253038580A000000005A
:10203C00205043203D2020253038580A0000000055
:10204C0020505352203D20253038580A0000000003
:10205C004653522F4641523A0A0000002043465341
:10206C0052203D2020253038580A00002048465385
:10207C0052203D2020253038580A00002044465379
:10208C0052203D2020253038580A0000204146536C
:10209C0052203D2020253038580A0000204D4D4656
:1020AC004152203D20253038580A0000204246413C
:1020BC0052203D2020253038580A00004D697363AA
:1020CC000A000000204C522F4558435F524554558E
:1020DC00524E3D20253038580A0000005B48617292
:1020EC00644661756C745D0A000000005B42757398
:1020FC004661756C745D0A005B557361676546617A
:10210C00756C745D0A00000048656C6C6F20415260
:10211C004D20576F726C6421000000005374616E87
:10212C0064617264206F7574707574206D6573735F
:10213C006167652E000000005374616E6461726407
:10214C00206572726F72206D6573736167652E0AFC
:10215C000000000053797374656D20636C6F636BC2
:10216C003A20257520487A0A000000005365636FF9
:10217C006E642025750A00000000000000000000BD
:10218C000000000000000000000000000000000043
:10219C000000000000000000000000000000000033
:1021AC000000000000000000000000000000000023
:1021BC000000000000000000000000000000000013
:1021CC000000000000000000000000000000000003
:1021DC00000000000000000020000020232D302B08
:1021EC002000686C4C00656667454647003031320C
:1021FC003334353637383941424344454600303163
:0F220C00323334353637383961626364656600C2
:10221C0078563412900000200000000000000000EE
:10222C0000000000010203040607080900A24A048A
:10223C000000000084210008A4210008C42100082B
:10224C000000000000000000000000000000000082
:10225C000000000000000000000000000000000072
:10226C000000000000000000000000000000000062
:10227C000000000000000000000000000000000052
:10228C000000000000000000000000000000000042
:08229C00200000203254769866
:040000050800010DE1
:00000001FF
