:020000040800F2
:100000000050002021020008290200082D020008EB
:10001000A1020008A5020008ED020008000000008F
:100020000000000000000000000000003503000890
:1000300039030008000000003D030008BD0C000863
:100040005103000851030008510300085103000840
:100050005103000851030008510300085103000830
:100060005103000851030008510300085103000820
:100070005103000851030008510300085103000810
:100080005103000851030008510300085103000800
:1000900051030008510300085103000851030008F0
:1000A00051030008510300085103000851030008E0
:1000B00051030008510300085103000851030008D0
:1000C00051030008510300085103000851030008C0
:1000D00051030008510300085103000851030008B0
:1000E00051030008510300085103000800000000FC
:1000F0000000000000000000000000000000000000
:1001000000000000000000005FF808F100B583B0B7
:1001100000F0F8FA304B314A1360314A1360314B2A
:10012000314A03E011681960043304322F498B42CD
:10013000F8D32A4B1A682E4B9A4204D1284B1A68DE
:100140002C4B9A4200D0FEE7234B2B4A13602B4ADC
:1001500013602B4B02E000221A600433294A9342B9
:10016000F9D3254B1B6813B9244B1B6803B1FEE779
:1001700000F0D4FA694601A800F054FA224C234B4F
:100180001C1BA410002504E01F4B53F82530984792
:100190000135AC42F8DC1E4C1E4B1C1BA410002584
:1001A00004E01B4B53F8253098470135AC42F8DC8E
:1001B0000099019800F0BCFD0546174C174B1C1B1D
:1001C000A41004E0013C144B53F824309847002C51
:1001D000F8DC284600F0F8F9BABADECA00000020C0
:1001E0008400002000000020E42000088800002097
:1001F000785634123254769888000020E0020020AD
:1002000088000020E40200207C0300087C03000832
:100210007C03000890030008900300089403000882
:1002200008B5FFF773FF00BF00BEFEE71EF0040F26
:100230000CBFEFF30880EFF309807146414A104785
:100240002DE9F04182B004468846134B5E6B9F6BEC
:100250009D6A1B6B13F0020F0DD00F4BDB6A002B56
:1002600009DA4BF6AB6100F0D5FA20B14FF000424D
:10027000094BDA620CE0094800F0E6F9CDF800809D
:100280003B4632462946204600F04CFA00BEFEE7C7
:1002900002B0BDE8F08100BF00ED00E0CC1D000819
:1002A00000BEFEE71EF0040F0CBFEFF30880EFF373
:1002B00009807146244A10472DE9F04182B0044676
:1002C0008846084B5E6B9F6B9D6A074800F0BCF93F
:1002D000CDF800803B4632462946204600F022FAFF
:1002E00000BEFEE700ED00E0DC1D00081EF0040F7C
:1002F0000CBFEFF30880EFF309807146134A1047F3
:100300002DE9F04182B004468846084B5E6B9F6B36
:100310009D6A074800F098F9CDF800803B463246C8
:100320002946204600F0FEF900BEFEE700ED00E0A1
:10033000E81D000800BEFEE700BEFEE700BEFEE7C7
:100340007047000041020008B902000801030008DC
:0403500000BEFEE706
:10035400E42000080000002088000020E4200008B9
:10036400000000000000000088000020E4020020DB
:100374000000000000000000910E00081D1000089D
:10038400F11000087511000839120008A10E0008C8
:10039400F8B505460C46464B98421BD003F58063DE
:1003A400984217D003F58063984213D003F5806315
:1003B40098420FD003F5806398420BD003F5806315
:1003C400984207D003F58063984203D0B22139489C
:1003D40000F02EF9E3788BB1042B0FD0282B0DD02D
:1003E400482B0BD0142B09D0102B07D01C2B05D075
:1003F400182B03D0B3212F4800F01AF923881BB916
:10040400B4212C4800F014F9E37803F00F063046C9
:1004140013F0100F0AD0A378013BDBB2022B03D9EF
:10042400BB21244800F004F9A07830432378E3B1D9
:100434002E68002316E001229A40218832EA010145
:100444000FD199000F278F4026EA070600FA01F121
:100454000E43E178282901D16A6102E0482900D1DC
:100464002A610133072BE6D92E602388FF2B1ED97E
:100474006E68002318E003F1080101228A402188F4
:1004840032EA01010FD199000F278F4026EA0706AF
:1004940000FA01F10E43E178282900D16A61E1787C
:1004A400482900D12A610133072BE4D96E60F8BDD5
:1004B40000080140A01B000838B504460D46144B43
:1004C40098421CD003F58063984218D003F58063EA
:1004D400984214D003F58063984210D003F58063EA
:1004E40098420CD003F58063984208D003F58063EA
:1004F400984204D040F26911064800F099F825B9F1
:100504004FF4B571034800F093F8256138BD00BF7E
:1005140000080140A01B000838B504460D46144BE2
:1005240098421CD003F58063984218D003F5806389
:10053400984214D003F58063984210D003F5806389
:1005440098420CD003F58063984208D003F5806389
:10055400984204D040F27911064800F069F825B9B0
:100564004FF4BD71034800F063F8656138BD00BF06
:1005740000080140A01B000838B504460D460E4B88
:10058400034003B920B940F24A410C4800F050F846
:10059400012D04D940F24B41084800F049F825B137
:1005A400074A93691C43946138BD054A936923EA59
:1005B4000404946138BD00BF0200C0FFD41B0008CE
:1005C40000100240FEE700BF08B5034800F052F8EF
:1005D4000120FFF7F7FF00BF041C000808B50D4B0E
:1005E4001B6813B90C4A0B4B1A600A4B1A68C31CDC
:1005F40023F00303134409498B4206D900F05CFE3F
:100604000C2303604FF0FF3008BD02490B60104615
:1006140008BD00BF8C000020E4020020004C002034
:1006240001230360014B0B60704700BF04000020EE
:1006340008B50A460146024800F004F8FFF7C4FF73
:10064400581C00080FB400B583B004AB53F8042B56
:1006540001938021064800F077FF002803DD01465E
:10066400034800F049F803B05DF804EB04B07047A8
:100674009400002010B5044600F032FF01462046E5
:1006840000F03AF80121024800F036F810BD00BF2E
:10069400481D00082DE9F04385B004460F46435633
:1006A40013BB042528462146ABBE04461FE035464D
:1006B400102E28BF1025002306E014F9011B04AAFC
:1006C4001A4402F8101C0133AB42F6D304AA1344B3
:1006D400002203F8102CE9464FF00408404649462E
:1006E400ABBE8046761B00E00E46002EDFD13846B6
:1006F40005B0BDE8F08300BF08B5FFF7CBFF08BD28
:1007040008B500F0FBF8024B024A9A6008BD00BF2E
:1007140000ED00E00000000808B500F017F908BD7E
:10072400F8B504460D4617461E462648FFF78AFFCD
:1007340021682548FFF786FF61682448FFF782FF98
:10074400A1682348FFF77EFFE1682248FFF77AFF9C
:1007540021692148FFF776FF61692048FFF772FF9E
:10076400A1691F48FFF76EFFE1691E48FFF76AFFA2
:100774001D48FFF767FF29461C48FFF763FF1C4C21
:10078400E16A1C48FFF75EFF216B1B48FFF75AFF25
:10079400E16B1A48FFF756FF15F0800F03D0394676
:1007A4001748FFF74FFF15F4004F03D031461548A3
:1007B400FFF748FF1448FFF745FF06991348FFF772
:1007C40041FFF8BDB01C0008C01C0008D01C000884
:1007D400E01C0008F01C0008001D0008101D0008A3
:1007E400201D0008301D0008401D00084C1D000895
:1007F40000ED00E05C1D00086C1D00087C1D000875
:100804008C1D00089C1D0008AC1D0008B41D0008C8
:1008140083691A888A4207D10268033A012A05D8F3
:100824000233836101207047002070470020704725
:1008340082B00023019300932C4A136843F480335D
:1008440013602A4B1B6803F400330093019B0133AC
:100854000193009B1BB9019BB3F5A06FF1D1234B0E
:100864001B6813F4003F02D00123009301E000232E
:100874000093009B012B36D11D4B1A6842F01002E5
:100884001A601A6822F003021A601A6842F002021F
:100894001A60A3F580535A685A605A685A605A68B5
:1008A40042F480625A605A6822F47C125A605A6890
:1008B40042F4E8125A601A6842F080721A600B4BD4
:1008C4001B6813F0007FFAD0084B5A6822F0030229
:1008D4005A605A6842F002025A60044B5B6803F0A3
:1008E4000C03082BF9D102B0704700BF001002407E
:1008F4000020024008B5FFF79BFF08BD08B5104B68
:100904001A6842F001021A6059680E4A0A405A6095
:100914001A6822F0847222F480321A601A6822F46F
:1009240080221A605A6822F4FE025A604FF41F02B1
:100934009A60FFF7DFFF4FF00062034B9A6008BD37
:10094400001002400000FFF800ED00E01F4B5B6860
:1009540003F00C03042B06D0082B08D03BBB1C4A25
:100964001C4B1A6026E01A4A1A4B1A6022E0174AF6
:1009740053685268C3F38343023312F4803F05D1B2
:10098400154A02FB03F3134A136013E00F4A52683B
:1009940012F4003F05D0104A02FB03F30D4A136022
:1009A40008E00B4A02FB03F30A4A136002E0084A18
:1009B400084B1A60054B5B68C3F30313074AD35C07
:1009C400DAB204490B68D3400B6070470010024050
:1009D40000127A001C00002000093D000C000020D9
:1009E40030B583B001211020FFF7C6FD4FF4005548
:1009F400ADF8045003238DF8063010238DF807302A
:100A0400054C01A92046FFF7C3FC29462046FFF701
:100A140053FD03B030BD00BF0010014010B50446C3
:100A2400084B0360C06A04F13403984201D000F01B
:100A34003DFA636923B104F10C000322014698478F
:100A4400204610BD001E000810B50446FFF7E6FF5F
:100A5400204600F02BFA204610BD00BF4162037F00
:100A640053B910B501620124047743770146806AC3
:100A740000F0B0F8204610BD00207047416A19B15B
:100A840008B5FFF7EBFF08BD00207047F8B5044632
:100A940017461E460D4B03600025456105774577D3
:100AA4000562456200F13403C362056380F8345083
:100AB4002C3000F03DFAA760069BA36225716662A4
:100AC40031462046FFF7CAFF2046F8BD001E000845
:100AD400036A23B1013B03620BB9012343777047D7
:100AE40008B583680BB900F0E9F9C368984708BDF5
:100AF40038B5447FCCB1047FBCB10023437703777E
:100B040083681BB102790AB998470EE0436923B19F
:100B14000379012B03D0002502E0002500E02546DF
:100B24001DB10C30FFF7DCFF2C46204638BD00BF5A
:100B340070B582B005460E4619B9914203D100231F
:100B440002E0002300E0012313B1114800F0B0F9E2
:100B5400941B01940F2C07D9002201A9284600F008
:100B6400B5F92860019BAB602868012C03D196F984
:100B74000030037004E01CB12246314600F0CFFB84
:100B8400019B6B602A680021D15402B070BD00BF84
:100B9400081E000810B504460B4600F10802026066
:100BA400C96A1A6B4FF000030A44FFF7C1FF2046DD
:100BB40010BD00BF014B0360704700BF3C1E00081E
:100BC40010B50446FFF7F6FF204600F06FF9204603
:100BD40010BD00BF2DE9F0438FB081468846002444
:100BE400D9F854309C4232D209EB8403596802A8E4
:100BF400FFF7D0FF414608A8FFF7CCFF039E0096FD
:100C0400099D0195AE4201D901AB00E06B461A681B
:100C1400029808991AB100F073FB074600E0002718
:100C240007B9771B08980AAB984201D000F03EF947
:100C3400029804AB984201D000F038F92FB909EBBF
:100C44008404C4F8048001200DE00134C8E7122BA9
:100C540008D809EB8302C2F804800133C9F8543080
:100C6400012000E000200FB0BDE8F08338B5054650
:100C740000246B6D9C4206D205EB84035868FFF791
:100C840027FF0134F5E738BD70B505460024264634
:100C94005EB96B6D9C4208D205EB84035868FFF77C
:100CA40027FF00B101260134F2E770BD014B186043
:100CB400704700BF1801002008B5064B1B681BB124
:100CC400044A1368013B1360034B1868FFF7CEFF17
:100CD40008BD00BF140100201801002008B5064813
:100CE400FFF7CCFE0548FFF7ADFC4FF40051044874
:100CF400FFF712FC08BD00BF1C010020441E0008C1
:100D04000010014008B50648FFF7B8FE0548FFF794
:100D140099FC4FF400510448FFF7CEFB08BD00BF17
:100D2400EC010020501E00080010014008B5114CD1
:100D340021681148FFF786FC2368104AA2FB0323AD
:100D44009B09013BB3F1807F09D20D4A5360F02126
:100D54000C4B83F8231000239360072313600A4885
:100D6400FFF7A4FF0948FFF73BFE0748FFF78CFF96
:100D7400FBE700BF1C000020601E0008D34D62107A
:100D840010E000E000ED00E060010020E801002038
:100D94002DE9F04190B004460D46012843D14FF6A9
:100DA400FF7399423FD12F4E2F4B3360002373655D
:100DB4002E4F02AA2E49384600F006F90DF1140808
:100DC400CDF80C8039687A684FF000030A4403A810
:100DD400FFF7AEFE00960223264A03A92648FFF732
:100DE40055FE0398404501D000F060F8234E09AA4F
:100DF4002349304600F0E8F80CAF0A97316872686E
:100E04004FF000030A440AA8FFF792FE154B009323
:100E140001231C4A0AA91C48FFF738FE0A98B84265
:100E240001D000F043F8D4B94FF6FF739D4216D1B8
:100E34001548FFF7F3FD114B53F8080B984201D006
:100E440000F034F80C48FFF7E9FD084B53F8080BA1
:100E5400984201D000F02AF80248FFF7ABFE10B028
:100E6400BDE8F081600100203C1E0008B8010020AC
:100E7400781E0008E10C0008EC010020D0010020DD
:100E8400801E0008090D00081C01002008B54FF65B
:100E9400FF710120FFF77CFF08BD00BF08B54FF6C6
:100EA400FF710020FFF774FF08BD00BF00F012BA05
:100EB40008B5FFF789FB08B5FFF786FB08B5FFF710
:100EC40083FB0AB100F02BBA7047000008B50B6829
:100ED400B3F1004F02D30A48FFF7EDFF934209D95B
:100EE4005200934206D2B2F1004F2ABF6FF0004382
:100EF4000A600B600868BDE80840013000F07AB869
:100F04008C1E0008034653F8080B984201D0FFF7E3
:100F1400CDBF7047012A10B502D10A78027010BD06
:100F2400FFF7CFFF10BD08B5521AFFF7F3FF08BD56
:100F34008842F7B504460E461FD0026800F1080344
:100F44009A424D6814BF82680F22AA420BD202A9AA
:100F540041F8045DFFF7BAFF07462046FFF7D2FFCA
:100F6400019B2760A36025B12A4631682068FFF7FA
:100F7400D1FF2368002265605A5503B0F0BD00001C
:100F840073B5044616460D4601B9BAB9731B0F2B47
:100F9400019307D9002201A92046FFF797FF019B7F
:100FA4002060A360324629462068FFF7BCFF019BFE
:100FB400226800216360D15402B070BD0148FFF77C
:100FC40077FF00BFE71F000838B500F108030446A7
:100FD40003600D4621B1084600F082FA2A1801E0A8
:100FE4004FF0FF3220464FF000032946FFF7C8FFB9
:100FF400204638BD10B5002814BF044601242046FD
:1010040000F060F930B900F069F808B9FFF7DCFACC
:101014008047F4E710BD0000244B1A68D0075CBF7A
:1010240001221A60224B1A68D1075CBF01221A60A0
:10103400204B1A68D2075CBF01221A601E4B1A6843
:10104400D0075CBF01221A601C4B1A68D1075CBF31
:1010540001221A601A4B1A68D2075CBF01221A6077
:10106400184B1A68D0075CBF01221A60164B1A6825
:10107400D1075CBF01221A60144B1A68D2075CBF07
:1010840001221A60124B1A68D0075CBF01221A6051
:10109400104B1A68D1075CBF01221A600E4B1A6804
:1010A400D2075CBF01221A60704700BF5C020020B7
:1010B4005802002054020020500200204C0200205C
:1010C4004802002044020020400200203C0200208C
:1010D400380200203402002030020020024B18683D
:1010E400BFF35F8F704700BF60020020184B1A687F
:1010F400D1075CBF01221A60164B1A68D2075CBF85
:1011040001221A60144B1A68D0075CBF01221A60CE
:10111400124B1A68D1075CBF01221A60104B1A687F
:10112400D2075CBF01221A600E4B1A68D0075CBF5D
:1011340001221A600C4B1A68D1075CBF01221A60A5
:101144000A4B1A68D2075CBF01221A60704700BFBD
:10115400800200207C02002078020020740200201B
:10116400700200206C02002068020020640200204B
:10117400244B1A68D0075CBF01221A60224B1A68FC
:10118400D1075CBF01221A60204B1A68D2075CBFEA
:1011940001221A601E4B1A68D0075CBF01221A6034
:1011A4001C4B1A68D1075CBF01221A601A4B1A68DB
:1011B400D2075CBF01221A60184B1A68D0075CBFC3
:1011C40001221A60164B1A68D1075CBF01221A600B
:1011D400144B1A68D2075CBF01221A60124B1A68BA
:1011E400D0075CBF01221A60104B1A68D1075CBF9C
:1011F40001221A600E4B1A68D2075CBF01221A60E2
:10120400704700BFB0020020AC020020A8020020FA
:10121400A4020020A00200209C02002098020020CA
:1012240094020020900200208C02002088020020FA
:1012340084020020184B1A68D1075CBF01221A608F
:10124400164B1A68D2075CBF01221A60144B1A6845
:10125400D0075CBF01221A60124B1A68D1075CBF29
:1012640001221A60104B1A68D2075CBF01221A606F
:101274000E4B1A68D0075CBF01221A600C4B1A6827
:10128400D1075CBF01221A600A4B1A68D2075CBFFF
:1012940001221A60704700BFD0020020CC02002057
:1012A400C8020020C4020020C0020020BC020020AA
:1012B400B8020020B4020020014B1868704700BF38
:1012C40080000020024B0146186800F09BB800BF64
:1012D40080000020024B0146186800F047B800BFA8
:1012E4008000002010B5C9B202449042034605D0E4
:1012F4001C7801308C42F8D1184610BD002010BD76
:1013040010B501390244904207D010F8013B11F89E
:10131400014FA342F7D0181B10BD002010BD10B51B
:10132400431E0A44914204D011F8014B03F8014FC3
:10133400F8E710BD884210B501EB020301D8421E44
:101344000BE09842FBD28118D21AD34204D013F88E
:10135400014D01F8014DF8E710BD994204D011F890
:10136400014B02F8014FF8E710BD000038B50546FF
:10137400002944D051F8043C0C1F002BB8BFE418DA
:1013840000F0F0F81E4A1368114613B96360146044
:1013940030E0A3420DD92268A018834201BF186827
:1013A4005B681218226063600C6023E0A24203D8D9
:1013B40013465A68002AF9D118681918A1420BD1AA
:1013C4002168014458188242196013D11068526888
:1013D400014419605A600DE002D90C232B6009E026
:1013E40021686018824201BF1068526809182160A0
:1013F40062605C602846BDE8384000F0B4B838BD8F
:10140400D802002070B5CD1C25F0030508350C2D3D
:1014140038BF0C25002D064601DBA94202D90C2356
:10142400336046E000F09EF8234B1C681A462146C0
:10143400A1B10B685B1B0ED40B2B03D90B60CC182A
:10144400CD501EE08C420BBF63684B681360636031
:1014540018BF0C4615E00C464968E9E7174C2368A9
:101464001BB9304600F02CF820602946304600F0C5
:1014740027F8431C18D0C41C24F00304A0420DD147
:101484002560304600F06FF804F10B00231D20F0B6
:101494000700C31A0ED05A42E25070BD211A3046DA
:1014A40000F00EF80130EBD10C233360304600F02D
:1014B4005AF8002070BD00BFD8020020D4020020DA
:1014C40038B5064C0023054608462360FFF786F826
:1014D400431C02D1236803B12B6038BDDC02002019
:1014E400034613F8012B002AFBD1181A0138704760
:1014F40030B5141E05469BB0184604DA8B232B60C6
:101504004FF0FF301DE04FF40273ADF80C300CBF08
:10151400234604F1FF33029305934FF6FF730091C2
:101524000491ADF80E3002461E9B6946284600F031
:1015340075F8431CBCBF8B232B6014B1009B0022A5
:101544001A701BB030BD000007B5009313460A465D
:10155400014603480068FFF7CBFF03B05DF804FBC6
:1015640080000020704770472DE9F0478E6882465E
:101574009E420C46914698463ED88A8912F4906F52
:101584003AD02568096902236F1A656905EB450598
:1015940095FBF3F57B1C43449D4238BF1D46530520
:1015A4000FD52946FFF72EFF064698B13A46216922
:1015B400FFF7B5FEA38923F4906343F08003A3816E
:1015C40013E02A4600F0BAFA064670B9216950467B
:1015D400FFF7CCFE0C23CAF80030A3894FF0FF308C
:1015E40043F04003A381BDE8F08726613E442660B2
:1015F40046466561ED1BA560464528BF46464946FB
:1016040032462068FFF796FEA36800209B1BA36068
:1016140023681E442660BDE8F08700002DE9F04FE2
:101624009DB003938B8980461C060D4616460DD546
:101634000B695BB94021FFF7E5FE2860286118B902
:101644000C23C8F80030CDE040236B6100230993DC
:1016540020238DF82930DFF89CB130238DF82A300F
:1016640037463C4614F8013B1BB9B7EB060910D0CA
:1016740003E0252BF9D02746F3E74B4632462946AB
:101684004046FFF771FF013000F0A780099B4B44EF
:1016940009933B78002B00F0A08000234FF0FF3229
:1016A40004930793059206938DF853301A930126F9
:1016B400052221784E48FFF715FE671C049B38B1BC
:1016C4004B4A3C46801A06FA00F018430490EFE7B0
:1016D400D90644BF20228DF853201A0744BF2B2279
:1016E4008DF8532022782A2A03D0079A00210A2051
:1016F4000BE0039A111D12680391002A10DA52427A
:1017040043F00200079204900BE027463B78013433
:10171400303B092B03D800FB02320121F5E701B16C
:1017240007923B782E2B1ED17B782A2B0AD1039B60
:1017340002371A1D1B680392002BB8BF4FF0FF330A
:10174400059310E0002319460593781C0A240746E4
:101754003A780130303A092A03D804FB01210123E5
:10176400F5E703B10591032239782248FFF7BAFD62
:1017740040B14023CBEB000003FA00F0049B013797
:1017840018430490397806221B487E1C8DF82810D3
:10179400FFF7A8FD88B1194B33B9039B073323F036
:1017A40007030833039314E003AB00932A46144B56
:1017B40004A94046AFF3008007E003AB00932A4638
:1017C4000F4B04A9404600F093F8B0F1FF3F824666
:1017D40003D0099B5344099342E7AB895B0601D4C8
:1017E400099801E04FF0FF301DB0BDE8F08F00BF55
:1017F400B0200008B6200008BA200008000000004D
:101804006D1500082DE9F04791461F460A698B685B
:1018140006469342B8BF1346C9F8003091F84320F6
:101824000C46DDF8208012B10133C9F8003023687A
:10183400990642BFD9F800300233C9F80030256850
:1018440015F0060510D104F1190A07E001235246E8
:1018540039463046C04701301AD00135E368D9F81B
:1018640000209B1A9D42F1DB94F843302268003338
:1018740018BF012392060FD5E118302081F84300E8
:101884005A1C94F845102244023382F8431003E0B2
:101894004FF0FF30BDE8F08704F14302394630468B
:1018A400C0470130F4D02268D9F80050E36802F050
:1018B4000602042A08BF5D1B2269A3680CBF25EA3F
:1018C400E57500259342C4BF9B1AED184FF000093B
:1018D4001A344D4509D00123224639463046C047C3
:1018E4000130D5D009F10109F3E70020BDE8F08704
:1018F4002DE9F04317460A7E85B06E2A98460646BF
:101904000C460C9B01F1430E00F0AE8011D8632A03
:1019140022D009D8002A00F0BB80582A40F0CA809F
:1019240081F84520834955E0642A1ED0692A1CD0D9
:10193400C0E0732A00F0B08009D86F2A2ED0702A34
:1019440040F0B8800A6842F020020A603EE0752A3E
:1019540024D0782A3AD0ADE01A6801F14205111D6D
:101964001960136884F84230A8E021681A6811F0FD
:10197400800F02D0111D196008E011F0400F02F130
:101984000401196002D0B2F9003000E01368002BA2
:101994003CDA2D225B4284F8432037E021681A6840
:1019A40011F0800F02D0111D196007E011F0400FF3
:1019B40002F10401196001D0138800E01368227E4B
:1019C4005C496F2A14BF0A2208221BE078225A4974
:1019D40084F845202268186812F0800F00F104058D
:1019E4001D6003D1550601D5038800E00368D007C4
:1019F40044BF42F0200222601BB9226822F0200278
:101A040022601022002084F8430001E049490A22A0
:101A14006568002DA56008DB206820F004002060C4
:101A24002BB9002D7DD175460CE0002B79D075467D
:101A3400B3FBF2F002FB1033CB5C05F8013D034627
:101A44000028F5D1082A0BD12368DA0708D52369C1
:101A540062689A42DEBF302305F8013C05F1FF3588
:101A6400C5EB0E0323612EE008681A6810F0800F9E
:101A7400496903D0101D1860136808E010F0400F86
:101A840002F104001860136801D0198000E01960A5
:101A940000232361754616E01A68111D1960156844
:101AA400002162682846FFF71DFC08B1401B6060F6
:101AB400636804E004F1420584F8422001232361B1
:101AC400002384F84330CDF800803B4603AA214626
:101AD4003046FFF797FE013002D14FF0FF3026E089
:101AE40023692A4639463046C0470130F5D0236879
:101AF4009B0710D5002504F1190907E001234A4684
:101B040039463046C0470130E7D00135E368039ACF
:101B14009B1A9D42F2DBE068039B9842B8BF1846CB
:101B240005E00B7804F1420584F842308AE705B0F9
:101B3400BDE8F083C1200008D2200008F8B50746AC
:101B440015460E4621B91146BDE8F840FFF75ABCC8
:101B54001AB9FFF70BFC2846F8BD00F015F88542CA
:101B64000ED929463846FFF74DFC044650B131469C
:101B74002A46FFF7D4FB31463846FFF7F7FB01E06E
:101B84003046F8BD2046F8BD51F8040C0028BEBF0D
:101B9400091851F8043CC018043870472E2E2F73CE
:101BA400797374656D2F7372632F73746D3332663A
:101BB400312D7374647065726970682F73746D333A
:101BC40032663130785F6770696F2E630000000001
:101BD4002E2E2F73797374656D2F7372632F737444
:101BE4006D333266312D7374647065726970682F59
:101BF40073746D3332663130785F7263632E6300C1
:101C040061626F727428292C2065786974696E6723
:101C14002E2E2E002C2066756E6374696F6E3A202A
:101C240000000000617373657274696F6E20222571
:101C34007322206661696C65643A2066696C65206C
:101C4400222573222C206C696E652025642573255A
:101C5400730A00006173736572745F706172616D01
:101C64002829206661696C65643A2066696C652080
:101C7400222573222C206C696E652025640A0000DD
:101C84006D61696E28617267633D25642C20617201
:101C940067763D5B000000002C20000022257322A3
:101CA400000000005D293B0A0000000053746163DA
:101CB4006B206672616D653A0A0000002052302084
:101CC4003D2020253038580A0000000020523120E1
:101CD4003D2020253038580A0000000020523220D0
:101CE4003D2020253038580A0000000020523320BF
:101CF4003D2020253038580A00000000205231329F
:101D0400203D20253038580A00000000204C522085
:101D14003D2020253038580A000000002050432080
:101D24003D2020253038580A00000000205053522E
:101D3400203D20253038580A000000004653522F19
:101D44004641523A0A0000002043465352203D20A7
:101D540020253038580A00002048465352203D20A0
:101D640020253038580A00002044465352203D2094
:101D740020253038580A00002041465352203D2087
:101D840020253038580A0000204D4D464152203D50
:101D940020253038580A00002042464152203D2078
:101DA40020253038580A00004D6973630A0000008A
:101DB400204C522F4558435F52455455524E3D20B6
:101DC400253038580A0000005B486172644661752A
:101DD4006C745D0A000000005B4275734661756CAB
:101DE400745D0A005B55736167654661756C745D6B
:101DF4000A0000000000000000000000210A0008A2
:101E04004D0A000862617369635F737472696E6777
:101E14003A3A5F4D5F636F6E737472756374206ECC
:101E2400756C6C206E6F742076616C6964000000C0
:101E34000000000000000000B90B0008C50B0008FA
:101E44005475726E204F6E204C4544005475726E6A
:101E5400204F6666204C454400000000537973749B
:101E6400656D20636C6F636B3A20257520487A0A90
:101E7400000000006F6E4576656E74006F666645FF
:101E840076656E740000000062617369635F737449
:101E940072696E673A3A5F4D5F637265617465009B
:101EA40025733A205F5F706F7320287768696368D1
:101EB40020697320257A7529203E20746869732D62
:101EC4003E73697A652829202877686963682069E0
:101ED4007320257A75290062617369635F73747274
:101EE400696E673A3A61743A205F5F6E20287768BA
:101EF40069636820697320257A7529203E3D207422
:101F04006869732D3E73697A652829202877686982
:101F1400636820697320257A752900626173696397
:101F24005F737472696E673A3A65726173650062D1
:101F3400617369635F737472696E673A3A5F4D5F88
:101F44007265706C6163655F617578006261736965
:101F5400635F737472696E673A3A696E736572741B
:101F64000062617369635F737472696E673A3A728F
:101F740065706C6163650062617369635F73747239
:101F8400696E673A3A5F4D5F7265706C61636500B4
:101F940062617369635F737472696E673A3A6173FD
:101FA4007369676E0062617369635F737472696EEB
:101FB400673A3A617070656E640062617369635F69
:101FC400737472696E673A3A636F70790062617311
:101FD40069635F737472696E673A3A636F6D7061B7
:101FE40072650062617369635F737472696E673AE4
:101FF4003A5F4D5F636F6E737472756374206E75B0
:102004006C6C206E6F742076616C6964006261731D
:1020140069635F737472696E673A3A626173696384
:102024005F737472696E670062617369635F73746E
:1020340072696E673A3A737562737472007374727C
:10204400696E673A3A737472696E67000000000043
:10205400000000000000000000000000000000007C
:10206400000000000000000000000000000000006C
:10207400000000000000000000000000000000005C
:10208400000000000000000000000000000000004C
:10209400000000000000000000000000000000003C
:1020A400000000000000000000000000232D302B81
:1020B4002000686C4C006566674546470030313245
:1020C400333435363738394142434445460030319C
:0F20D400323334353637383961626364656600FC
:1020E4007856341290000020000000000000000028
:1020F40000000000010203040607080900A24A04C4
:102104000000000050200008702000089020000803
:1021140000000000000000000000000000000000BB
:1021240000000000000000000000000000000000AB
:10213400000000000000000000000000000000009B
:10214400000000000000000000000000000000008B
:10215400000000000000000000000000000000007B
:0821640020000020325476989F
:040000050800010DE1
:00000001FF
